:100000000C945D000C9485000C9485000C94850084
:100010000C9485000C9485000C9485000C9485004C
:100020000C9485000C9485000C9485000C9485003C
:100030000C9485000C9485000C9485000C9485002C
:100040000C94DD020C9485000C9485000C948500C2
:100050000C9485000C9485000C9485000C9485000C
:100060000C9485000C94850000000008000201003B
:100070000003040700000000000000000000000072
:10008000250028002B0000000000240027002A0083
:10009000040404040404040402020202020203032E
:1000A0000303030301020408102040800102040836
:1000B0001020010204081020A90411241FBECFEF54
:1000C000D8E0DEBFCDBF11E0A0E0B1E0EAE5FEE0A0
:1000D00002C005900D92A634B107D9F721E0A6E43D
:1000E000B1E001C01D92AB36B207E1F710E0CDE5FB
:1000F000D0E004C02197FE010E942507CC35D1072E
:10010000C9F70E9427030C942B070C94000090E081
:10011000FC01EC55FF4F249180579F4FFC018491C7
:10012000882399F090E0880F991FFC01EA57FF4F50
:10013000A591B491FC01E458FF4F859194918FB73C
:10014000F894EC91E22BEC938FBF0895AF92BF929D
:10015000CF92DF92EF92FF920F931F93CF93DF9393
:100160006C017B018B01040F151FEB015E01AE18C2
:10017000BF08C017D10759F06991D601ED91FC91E4
:100180000190F081E02DC6010995892B79F7C50111
:10019000DF91CF911F910F91FF90EF90DF90CF9063
:1001A000BF90AF90089590E0FC01E859FF4F249173
:1001B000FC01EC55FF4F3491FC01E057FF4FE491F7
:1001C000EE23C9F0222339F0233001F1A8F42130C5
:1001D00019F1223029F1F0E0EE0FFF1FE458FF4F34
:1001E000A591B4918FB7F894EC91611126C0309528
:1001F0003E233C938FBF08952730A9F02830C9F0E3
:10020000243049F7809180008F7D03C08091800069
:100210008F7780938000DFCF84B58F7784BDDBCF6D
:1002200084B58F7DFBCF8091B0008F778093B00035
:10023000D2CF8091B0008F7DF9CF3E2BDACF3FB780
:10024000F89480914B0190914C01A0914D01B09197
:100250004E0126B5A89B05C02F3F19F00196A11DA0
:10026000B11D3FBFBA2FA92F982F8827BC01CD0100
:10027000620F711D811D911D42E0660F771F881F5F
:10028000991F4A95D1F70895089590E080E0089568
:10029000FC0101900020E9F73197AF01481B590B91
:1002A000BC0183E591E00C94A6008F929F92AF92DF
:1002B000BF920F931F93CF93DF93CDB7DEB7A19774
:1002C0000FB6F894DEBF0FBECDBF19A2423008F4BE
:1002D0004AE08E010F5D1F4F842E912CB12CA12C72
:1002E000A50194010E940307E62FB901CA01EA3073
:1002F000F4F4E05DD801EE938D01232B242B252B04
:1003000079F790E080E0109719F0CD010E94480144
:10031000A1960FB6F894DEBF0FBECDBFDF91CF918F
:100320001F910F91BF90AF909F908F900895E95CBF
:10033000E1CFCF93DF93EC0160E08E810E94D30088
:1003400061E08E810E94D30060E08E810E94D30024
:100350008BE891E00197F1F7DF91CF910895CF926B
:10036000DF92EF92FF920F931F93CF93DF936C0175
:100370007C0187E0E80EF11CD0E0C0E0062F10E021
:10038000B8010C2E02C0759567950A94E2F761706A
:10039000F70181917F010E94D3002196C430D105DD
:1003A00079F7C601DF91CF911F910F91FF90EF90E8
:1003B000DF90CF900C949901CF92DF92EF92FF9251
:1003C0000F931F93CF93DF93EC01F62E642F8C8154
:1003D0000E94D3008D818F3F19F060E00E94D3000E
:1003E0000F2D10E08F8584FF25C06E0187E0C80EB9
:1003F000D11CF12CE12CB8010E2C02C0759567952B
:100400000A94E2F76170F60181916F010E94D300B6
:10041000FFEFEF1AFF0A88E0E816F10461F7CE015A
:10042000DF91CF911F910F91FF90EF90DF90CF90D0
:100430000C949901B80184E0759567958A95E1F768
:10044000CE010E94AF016F2DCE01DF91CF911F91A0
:100450000F91FF90EF90DF90CF900C94AF0140E0B0
:10046000682F83E591E00C94DC01CF93DF93823019
:1004700029F49091620198609093620180936601E3
:100480001092670180E48093680180E180936901A4
:1004900080E580936A01809157010E9487008091D6
:1004A00058018F3F11F00E948700809159010E94EE
:1004B0008700C3E5D1E09E01235531408091620160
:1004C00084FD0AC084E090E02196281739073CF4A7
:1004D0008E810E948700EFCF88E090E0F5CF8BE31C
:1004E0009DE00197F1F760E0809157010E94D300F1
:1004F00060E0809159010E94D300809158018F3FA4
:1005000019F060E00E94D3008091620184FD39C03F
:1005100063E083E591E00E94AF01CBE4D6E4CE0135
:100520000197F1F763E083E591E00E94AF01219725
:10053000F1F763E083E591E00E94AF0183E592E08B
:100540000197F1F762E083E591E00E94AF018091AD
:10055000620180620E942F0284E0809363018CE03C
:100560000E942F0281E00E942F028BE39FE10197FE
:10057000F1F782E08093640186E0DF91CF910C94E3
:100580002F0280620E942F028BE496E40197F1F71C
:100590008091620180620E942F0283E592E00197C0
:1005A000F1F78091620180620E942F02D0CF41E07A
:1005B0000E94DC0181E090E008951F920F920FB637
:1005C0000F9211242F933F938F939F93AF93BF93D9
:1005D0008091470190914801A0914901B0914A0151
:1005E0003091460123E0230F2D3758F50196A11DC8
:1005F000B11D209346018093470190934801A09339
:100600004901B0934A0180914B0190914C01A09116
:100610004D01B0914E010196A11DB11D80934B017A
:1006200090934C01A0934D01B0934E01BF91AF91B7
:100630009F918F913F912F910F900FBE0F901F9020
:10064000189526E8230F0296A11DB11DD2CF7894EC
:1006500084B5826084BD84B5816084BD85B58260C7
:1006600085BD85B5816085BD80916E008160809378
:100670006E001092810080918100826080938100E1
:1006800080918100816080938100809180008160F1
:10069000809380008091B10084608093B10080914C
:1006A000B00081608093B00080917A008460809374
:1006B0007A0080917A00826080937A0080917A003B
:1006C000816080937A0080917A00806880937A00BC
:1006D0001092C10082E00E94350288E00E948700EB
:1006E00010E4C0E0D0E010937C0080917A00806438
:1006F00080937A0080917A0086FDFCCF809178000B
:1007000060917900762F682F072E000C880B990BCB
:100710000E94DC0520E030E44CE955E40E9491069B
:1007200020E030EC4FE754E40E94390520E030E04F
:1007300040E251E40E94390560934F0170935001EB
:100740008093510190935201E1E080916601811103
:10075000E0E0E195F0E0ED5AFE4F848980680E9468
:100760002F028CE091E00E944801C0904F01D09090
:100770005001E0905101F0905201A7019601C7018C
:10078000B6010E94FE06882309F454C088E191E076
:100790000E94480120E030E040EA51E460914F01BE
:1007A0007091500180915101909152010E948C06EC
:1007B00087FDBAC061E088E00E94D300E091660145
:1007C000E23008F0AFC0E150F0E0ED5AFE4F84890E
:1007D00080680E942F0284E291E00E9448010E94FA
:1007E0001F014B015C0180EDC82E87E0D82EE12C63
:1007F000F12C0E941F01681979098A099B09683E3A
:10080000734081059105A8F321E0C21AD108E108DF
:10081000F10888EE880E83E0981EA11CB11CC1145B
:10082000D104E104F10429F7209709F45CCF0E9478
:10083000000059CF46015701E894B7F82FEF3FEF7A
:100840004FE75FE7C501B4010E94FE0681110DC0AC
:100850002FEF3FEF4FE75FE7C501B4010E9434057A
:1008600018161CF48CE191E093CF2FEF3FEF4FE788
:100870005FE4C701B6010E948C0618161CF480E2E2
:1008800091E086CF2FEF3FEF4FE75FECC701B60156
:100890000E94340587FDF3CF20E030E0A901C701B5
:1008A000B6010E94340587FF0AC041E06DE283E58E
:1008B00091E00E94DC01F7FAF094F7F8F0942DEC47
:1008C0003CEC4CE45DE3C701B6010E94C8044B0157
:1008D0005C010E94AB056B017C010E94DA059B0163
:1008E000AC01C501B4010E94C7044B015C014AE0A0
:1008F000C701B6010E94550141E06EE283E591E037
:100900000E94DC0120E030E040E251E4C501B40186
:100910000E9491060E94AB0590E080E04AE00E94B0
:10092000550138CFE1E050CF60E088E00E94D3006D
:10093000E0916601E23058F4E150F0E0ED5AFE4FEC
:10094000848980680E942F0285E391E046CFE1E030
:10095000F4CFE3E5F1E01382128284E091E0918329
:10096000808387E084838FEF858386E0868385E0BC
:10097000878384E0808783E0818782E08287138693
:10098000148615861686178681E00C943502505819
:10099000BB27AA270E94DF040C9452060E9444063B
:1009A00038F00E944B0620F039F49F3F19F426F4EA
:1009B0000C9441060EF4E095E7FB0C943B06E92FFE
:1009C0000E94630658F3BA176207730784079507F6
:1009D00020F079F4A6F50C9485060EF4E0950B2E24
:1009E000BA2FA02D0B01B90190010C01CA01A00181
:1009F0001124FF27591B99F0593F50F4503E68F1DC
:100A00001A16F040A22F232F342F4427585FF3CF1C
:100A1000469537952795A795F0405395C9F77EF4ED
:100A20001F16BA0B620B730B840BBAF09150A1F036
:100A3000FF0FBB1F661F771F881FC2F70EC0BA0FBC
:100A4000621F731F841F48F4879577956795B79544
:100A5000F7959E3F08F0B0CF9395880F08F099273F
:100A6000EE0F9795879508950E94170608F481E088
:100A700008950E944D050C9452060E944B0658F0B2
:100A80000E94440640F029F45F3F29F00C943B0695
:100A900051110C9486060C9441060E94630668F37B
:100AA0009923B1F3552391F3951B550BBB27AA2727
:100AB00062177307840738F09F5F5F4F220F331F61
:100AC000441FAA1FA9F335D00E2E3AF0E0E832D029
:100AD00091505040E695001CCAF72BD0FE2F29D02C
:100AE000660F771F881FBB1F261737074807AB07FE
:100AF000B0E809F0BB0B802DBF01FF2793585F4F73
:100B00003AF09E3F510578F00C943B060C94860613
:100B10005F3FE4F3983ED4F3869577956795B79554
:100B2000F7959F5FC9F7880F911D9695879597F95F
:100B30000895E1E0660F771F881FBB1F62177307D8
:100B40008407BA0720F0621B730B840BBA0BEE1FED
:100B500088F7E09508950E946B0688F09F5798F0FB
:100B6000B92F9927B751B0F0E1F0660F771F881FB2
:100B7000991F1AF0BA95C9F714C0B13091F00E94CC
:100B80008506B1E008950C948506672F782F882795
:100B9000B85F39F0B93FCCF3869577956795B395F3
:100BA000D9F73EF490958095709561957F4F8F4F62
:100BB0009F4F0895E89409C097FB3EF49095809567
:100BC000709561957F4F8F4F9F4F9923A9F0F92F13
:100BD00096E9BB279395F695879577956795B79591
:100BE000F111F8CFFAF4BB0F11F460FF1BC06F5F77
:100BF0007F4F8F4F9F4F16C0882311F096E911C089
:100C0000772321F09EE8872F762F05C0662371F0A9
:100C100096E8862F70E060E02AF09A95660F771FBD
:100C2000881FDAF7880F9695879597F90895990F99
:100C30000008550FAA0BE0E8FEEF16161706E807A6
:100C4000F907C0F012161306E407F50798F0621BC7
:100C5000730B840B950B39F40A2661F0232B242B9C
:100C6000252B21F408950A2609F4A140A6958FEFBB
:100C7000811D811D089597F99F6780E870E060E00D
:100C800008959FEF80EC089500240A941616170625
:100C900018060906089500240A941216130614066D
:100CA00005060895092E0394000C11F4882352F0D0
:100CB000BB0F40F4BF2B11F460FF04C06F5F7F4F88
:100CC0008F4F9F4F089557FD9058440F551F59F06F
:100CD0005F3F71F04795880F97FB991F61F09F3F29
:100CE00079F087950895121613061406551FF2CF52
:100CF0004695F1DF08C0161617061806991FF1CFA2
:100D000086957105610508940895E894BB276627C8
:100D10007727CB0197F908950E94170608F48FEF03
:100D200008950E94A4060C9452060E94440638F0CE
:100D30000E944B0620F0952311F00C943B060C9476
:100D4000410611240C9486060E94630670F3959F59
:100D5000C1F3950F50E0551F629FF001729FBB27B2
:100D6000F00DB11D639FAA27F00DB11DAA1F649F4E
:100D70006627B00DA11D661F829F2227B00DA11D01
:100D8000621F739FB00DA11D621F839FA00D611D87
:100D9000221F749F3327A00D611D231F849F600DA8
:100DA000211D822F762F6A2F11249F5750409AF0D1
:100DB000F1F088234AF0EE0FFF1FBB1F661F771F5D
:100DC000881F91505040A9F79E3F510580F00C9428
:100DD0003B060C9486065F3FE4F3983ED4F3869579
:100DE00077956795B795F795E7959F5FC1F7FE2BC8
:100DF000880F911D9695879597F908950E9417067B
:100E0000880B990B0895A1E21A2EAA1BBB1BFD01AA
:100E10000DC0AA1FBB1FEE1FFF1FA217B307E407D9
:100E2000F50720F0A21BB30BE40BF50B661F771F31
:100E3000881F991F1A9469F7609570958095909511
:100E40009B01AC01BD01CF010895EE0FFF1F05907E
:0A0E5000F491E02D0994F894FFCF0F
:100E5A0000000000D702A6004501440154656D70E8
:100E6A003A284329202020006E616E00696E6600D0
:100E7A006F76660056656E74696C61646F723A20AB
:100E8A004F4E20200056656E74696C61646F723A29
:060E9A00204F4646000057
:00000001FF
